S0210000456C656374726F6E696320566F74696E67204D616368696E652E737265638F
S11300000C942A000C9447000C9447000C9447006D
S11300100C9447000C9447000C9447000C94470040
S11300200C9447000C9447000C9447000C94470030
S11300300C9447000C9447000C9447000C94470020
S11300400C9447000C9447000C9447000C94470010
S11300500C94470011241FBECFE5D8E0DEBFCDBF0E
S113006010E0A0E6B0E0E6EAFAE002C005900D92E6
S1130070A037B107D9F710E0A0E7B0E001C01D92A6
S1130080A437B107E1F70E942C030C9451050C949A
S1130090000040E00E94780008950E9482010895C3
S11300A00E94F20108950895813049F0813028F0CA
S11300B0823039F0833041F406C06BBB089568BBCD
S11300C0089565BB089562BB0895813049F081307D
S11300D028F0823039F0833049F406C08BB3089598
S11300E088B3089585B3089582B3089580E0089590
S11300F0442321F0413009F07FC042C08130B1F087
S1130100813030F0823001F1833009F075C02AC0AB
S11301102AB381E090E0AC0102C0440F551F6A95F8
S1130120E2F7BA01609562236ABB089527B381E0C0
S113013090E0AC0102C0440F551F6A95E2F7BA0182
S11301406095622367BB089524B381E090E0AC011D
S113015002C0440F551F6A95E2F7BA016095622305
S113016064BB089521B381E090E0AC0102C0440F68
S1130170551F6A95E2F7BA016095622361BB089541
S11301808130A1F0813028F08230E9F08330A1F58C
S113019027C02AB381E090E0AC0102C0440F551F90
S11301A06A95E2F7BA01622B6ABB089527B381E02E
S11301B090E0AC0102C0440F551F6A95E2F7BA0102
S11301C0622B67BB089524B381E090E0AC0102C0C8
S11301D0440F551F6A95E2F7BA01622B64BB089578
S11301E021B381E090E0AC0102C0440F551F6A9531
S11301F0E2F7BA01622B61BB0895442309F441C0BC
S1130200413009F07EC08130A9F0813030F0823075
S1130210F1F0833009F075C027C02BB381E090E082
S1130220AC0102C0440F551F6A95E2F7BA01622B74
S11302306BBB089528B381E090E0AC0102C0440F89
S1130240551F6A95E2F7BA01622B68BB089525B37E
S113025081E090E0AC0102C0440F551F6A95E2F7BB
S1130260BA01622B65BB089522B381E090E0AC0132
S113027002C0440F551F6A95E2F7BA01622B62BBB4
S113028008958130A9F0813028F08230F9F083306C
S1130290C1F52AC02BB381E090E0AC0102C0440F49
S11302A0551F6A95E2F7BA01609562236BBB089506
S11302B028B381E090E0AC0102C0440F551F6A9559
S11302C0E2F7BA016095622368BB089525B381E023
S11302D090E0AC0102C0440F551F6A95E2F7BA01E1
S11302E06095622365BB089522B381E090E0AC0180
S11302F002C0440F551F6A95E2F7BA016095622364
S113030062BB0895813089F0813028F08230B9F0E1
S1130310833049F51EC029B330E0C90102C0959568
S113032087956A95E2F78170089526B330E0C90194
S113033002C0959587956A95E2F78170089523B375
S113034030E0C90102C0959587956A95E2F78170FE
S1130350089520B330E0C90102C0959587956A9548
S1130360E2F78170089580E008958130A1F0813032
S113037028F08230E9F08330A1F527C02BB381E067
S113038090E0AC0102C0440F551F6A95E2F7BA0130
S113039062276BBB089528B381E090E0AC0102C0F2
S11303A0440F551F6A95E2F7BA01622768BB0895A6
S11303B025B381E090E0AC0102C0440F551F6A955B
S11303C0E2F7BA01622765BB089522B381E090E0A9
S11303D0AC0102C0440F551F6A95E2F7BA016227C7
S11303E062BB0895442309F441C0413009F07EC042
S11303F08130A9F0813030F08230F1F0833009F09F
S113040075C027C02BB381E090E0AC0102C0440F5B
S1130410551F6A95E2F7BA01622B6BBB089528B3A6
S113042081E090E0AC0102C0440F551F6A95E2F7E9
S1130430BA01622B68BB089525B381E090E0AC015A
S113044002C0440F551F6A95E2F7BA01622B65BBDF
S1130450089522B381E090E0AC0102C0440F551F1F
S11304606A95E2F7BA01622B62BB08958130A9F064
S1130470813028F08230F9F08330C1F52AC02BB3E3
S113048081E090E0AC0102C0440F551F6A95E2F789
S1130490BA01609562236BBB089528B381E090E0B4
S11304A0AC0102C0440F551F6A95E2F7BA0160958A
S11304B0622368BB089525B381E090E0AC0102C0DB
S11304C0440F551F6A95E2F7BA016095622365BB34
S11304D0089522B381E090E0AC0102C0440F551F9F
S11304E06A95E2F7BA016095622362BB0895CF93DF
S11304F0DF93D82FC62F60E04C2F0E94F2018D2F7E
S113050061E04C2F0E94F2018D2F62E04C2F0E947B
S1130510F2018D2F63E04C2F0E94F201DF91CF9105
S11305200895CF93DF93D82FC62F64E04C2F0E94F9
S1130530F2018D2F65E04C2F0E94F2018D2F66E0B1
S11305404C2F0E94F2018D2F67E04C2F0E94F20184
S1130550DF91CF910895CF93DF93C82FD62F462FE5
S1130560417060E00E94FD004D2F469541708C2F34
S113057061E00E94FD004D2F4695469541708C2FF9
S113058062E00E94FD00D695D695D6954D2F417018
S11305908C2F63E00E94FD00DF91CF910895CF93EB
S11305A0DF93C82FD62FD295D07F462F417064E0B9
S11305B00E94FD004D2F42954695477041708C2F47
S11305C065E00E94FD004D2F429546954695437087
S11305D041708C2F66E00E94FD004D2F441F44277C
S11305E0441F8C2F67E00E94FD00DF91CF91089596
S11305F0CF93DF93D82FC62F60E04C2F0E94780052
S11306008D2F61E04C2F0E9478008D2F62E04C2FDB
S11306100E9478008D2F63E04C2F0E947800DF91B8
S1130620CF910895CF93DF93D82FC62F64E04C2F3A
S11306300E9478008D2F65E04C2F0E9478008D2F4A
S113064066E04C2F0E9478008D2F67E04C2F0E94AB
S11306507800DF91CF9108950E94C90480E060E0A2
S11306600E94490080E061E00E94490080E062E06D
S11306700E94490080E063E00E94490080E064E059
S11306800E94490080E690E00E94360581E06CE01B
S11306900E94150584E690E00E94360582E061E040
S11306A00E94150588E690E00E94360582E06CE021
S11306B00E9415058CE690E00E94360500E610E0E5
S11306C00F2EF4E6EF2EF0E0FF2EF02D0F2EF8E6BD
S11306D0CF2EF0E0DF2EF02D0F2EFCE6AF2EF0E053
S11306E0BF2EF02DCAE080E060E00E944D00813012
S11306F051F5809173008F5F809373008A3050F4BA
S113070081E063E00E94150580917300805D0E9482
S11307108104D6C0843608F0D3C081E063E00E942F
S11307201505809173006C2F0E944505805D0E9421
S11307308104809173006C2F0E944505892F805D90
S11307400E948104BDC080E061E00E944D008130C0
S113075051F5809172008F5F809372008A3050F45B
S113076081E06EE00E94150580917200805D0E9418
S11307708104A6C0843608F0A3C081E06EE00E9424
S11307801505809172006C2F0E944505805D0E94C2
S11307908104809172006C2F0E944505892F805D31
S11307A00E9481048DC080E062E00E944D0081308F
S11307B051F5809171008A3068F48F5F80937100E5
S11307C082E063E00E94150580917100805D0E94C3
S11307D0810476C0843608F073C082E063E00E942E
S11307E01505809171006C2F0E944505805D0E9463
S11307F08104809171006C2F0E944505892F805DD2
S11308000E9481045DC080E063E00E944D0081305D
S113081051F5809170008A3068F48F5F8093700086
S113082082E06EE00E94150580917000805D0E9458
S1130830810446C0843608F043C082E06EE00E9422
S11308401505809170006C2F0E944505805D0E9403
S11308508104809170006C2F0E944505892F805D72
S11308600E9481042DC080E064E00E944D0081302C
S113087039F510927000109271001092720010926B
S1130880730061E00E941505C8010E94360581E0ED
S11308906CE00E941505C7010E94360582E061E004
S11308A00E941505C6010E94360582E06CE00E9494
S11308B01505C5010E94360581E061E00E94150519
S11308C08FEF91EEA4E081509040A040E1F700C08A
S11308D0000009CF82E067E041E00E94FD0083EF61
S11308E091E00197F1F700C0000082E067E040E08A
S11308F00E94FD0083EF91E00197F1F700C0000032
S11309000895CF93C82F682F62956F7082E00E947C
S1130910AB0282E065E041E00E94FD000E946A04AF
S113092082E06C2F0E94AB0282E065E041E00E940D
S1130930FD000E946A0489EF90E00197F1F700C07E
S11309400000CF910895CF93C82F682F62956F70E0
S113095082E00E94AB0282E065E040E00E94FD007C
S11309600E946A0482E06C2F0E94AB0282E065E080
S113097040E00E94FD000E946A0489EF90E0019724
S1130980F1F700C00000CF91089581E00E94A30414
S1130990089587EA91E60197F1F700C0000082E02C
S11309A061E00E94F80282E067E041E00E94780082
S11309B082E065E041E00E94780082E066E041E088
S11309C00E94780082E066E040E00E94FD0082E040
S11309D00E94A30483EC99E00197F1F700C00000A2
S11309E088E20E94A30489EF90E00197F1F700C028
S11309F000008CE00E94A30489EF90E00197F1F7D6
S1130A0000C0000081E00E94A30483EC99E00197F8
S1130A10F1F700C0000086E00E94A30489EF90E093
S1130A200197F1F700C000000895282F21502230CB
S1130A3070F4613170F4662371F0813019F4962FEB
S1130A4091580AC0823041F4962F915405C090E821
S1130A5003C090E801C090E8892F0E94A30489EFA5
S1130A6090E00197F1F700C000000895CF93DF9361
S1130A70EC018881882331F021960E9481048991B8
S1130A808823D9F7DF91CF910895991B79E004C0A9
S1130A90991F961708F0961B881F7A95C9F78095B9
S1090AA00895F894FFCF55
S1130AA6413D3000423D3000433D3000443D30007E
S9030000FC
